S01700004156525F4170706C69636174696F6E2E7372656351
S11300000C942A000C9447000C9447030C9447006A
S11300100C9406040C94DD030C9447000C944700E4
S11300200C9447000C94B4030C9447000C948B0379
S11300300C9447000C942F040C9481040C945804E1
S11300400C9447000C9447000C9447000C94470010
S11300500C94470011241FBECFE5D8E0DEBFCDBF0E
S113006010E0A0E6B0E0E8E5F9E002C005900D92EA
S1130070A039B107D9F720E0A0E9B0E001C01D9292
S1130080A03AB207E1F70E9460010C94AA040C9410
S11300900000CF93C82F60E081E00E9481026C2FA2
S11300A0661F6627661F86E00E948102C6FB6627DC
S11300B060F985E00E948102C5FB662760F984E04F
S11300C00E948102C4FB662760F983E00E948102DA
S11300D061E082E00E9481028FEC97E00197F1F7E2
S11300E000C0000060E082E00E9481028FEC97E093
S11300F00197F1F700C00000C3FB662760F986E0B2
S11301000E948102C2FB662760F985E00E94810299
S1130110C1FB662760F984E00E9481026C2F617044
S113012083E00E94810261E082E00E9481028FEC00
S113013097E00197F1F700C0000060E082E00E94C0
S113014081028FEC97E00197F1F700C00000CF9196
S11301500895CF93C82F61E081E00E9481026C2F43
S1130160661F6627661F86E00E948102C6FB66271B
S113017060F985E00E948102C5FB662760F984E08E
S11301800E948102C4FB662760F983E00E94810219
S113019061E082E00E9481028FEC97E00197F1F721
S11301A000C0000060E082E00E9481028FEC97E0D2
S11301B00197F1F700C00000C3FB662760F986E0F1
S11301C00E948102C2FB662760F985E00E948102D9
S11301D0C1FB662760F984E00E9481026C2F617084
S11301E083E00E94810261E082E00E9481028FEC40
S11301F097E00197F1F700C0000060E082E00E9400
S113020081028FEC97E00197F1F700C00000CF91D5
S113021008952FE788E391E0215080409040E1F772
S113022000C0000082E00E94490088E20E94490068
S11302308CE00E94490081E00E9449008FEC97E025
S11302400197F1F700C0000086E00E94490008957C
S11302500E94A90008950F931F93CF938C01C0E0CF
S113026003C00E942801CF5FF801EC0FF11D8081CB
S11302708111F7CFCF911F910F910895811105C07E
S113028080E8860F0E9449000895813021F480ECB3
S1130290860F0E9449000895CF93DF93EA010E94DC
S11302A03E01CE010E942B01DF91CF9108950E945F
S11302B0710280E00E94790378940E9409010895F4
S11302C00E94570180E690E00E942B01C1E38C2F2D
S11302D00E948603D82F60E081E00E943E018D2FAA
S11302E00E942801CF5FF3CF982F96959695969507
S11302F08770613009F455C020F0623009F4A1C060
S113030008959130C1F028F0923039F19330B9F169
S113031008954AB321E030E0B90102C0660F771FA7
S11303208A95E2F7CB01942F982B9ABB9BB38095C7
S113033089238BBB089547B321E030E0B90102C0A3
S1130340660F771F8A95E2F7CB01942F982B97BB02
S113035098B38095892388BB089544B321E030E0A5
S1130360B90102C0660F771F8A95E2F7CB01942F7B
S1130370982B94BB95B38095892385BB089541B38D
S113038021E030E0B90102C0660F771F8A95E2F7D9
S1130390CB01942F982B91BB92B38095892382BB78
S11303A008959130C1F028F0923039F19330B9F1C9
S11303B008954AB321E030E0B90102C0660F771F07
S11303C08A95E2F7CB018095942F98239ABB9BB32F
S11303D089238BBB089547B321E030E0B90102C003
S11303E0660F771F8A95E2F7CB018095942F9823A7
S11303F097BB98B3892388BB089544B321E030E0C8
S1130400B90102C0660F771F8A95E2F7CB01809588
S1130410942F982394BB95B3892385BB089541B346
S113042021E030E0B90102C0660F771F8A95E2F738
S1130430CB018095942F982391BB92B3892382BBDF
S113044008959130C1F028F0923039F19330B9F128
S113045008954AB321E030E0B90102C0660F771F66
S11304608A95E2F7CB01962F909594239ABB9BB380
S1130470892B8BBB089547B321E030E0B90102C05A
S1130480660F771F8A95E2F7CB01962F90959423F8
S113049097BB98B3892B88BB089544B321E030E01F
S11304A0B90102C0660F771F8A95E2F7CB01962F38
S11304B09095942394BB95B3892B85BB089541B340
S11304C021E030E0B90102C0660F771F8A95E2F798
S11304D0CB01962F9095942391BB92B3892B82BB29
S11304E00895CF93C0E009C0EC2FF0E0EA59FF4F24
S11304F060818C2F0E947401CF5FC032A8F3CF912A
S11305000895982F96959695969587706130E1F5A4
S1130510913099F028F09230E9F0933041F1089548
S11305204BB321E030E0B90102C0660F771F8A9512
S1130530E2F7CB01842B8BBB089548B321E030E074
S1130540B90102C0660F771F8A95E2F7CB01842BAD
S113055088BB089545B321E030E0B90102C0660FBD
S1130560771F8A95E2F7CB01842B85BB089542B3AC
S113057021E030E0B90102C0660F771F8A95E2F7E7
S1130580CB01842B82BB089561113FC09130A1F04F
S113059028F09230F9F0933059F108954BB321E0EB
S11305A030E0B90102C0660F771F8A95E2F7CB01EC
S11305B0809584238BBB089548B321E030E0B901D2
S11305C002C0660F771F8A95E2F7CB0180958423DA
S11305D088BB089545B321E030E0B90102C0660F3D
S11305E0771F8A95E2F7CB018095842385BB089514
S11305F042B321E030E0B90102C0660F771F8A954B
S1130600E2F7CB018095842382BB0895982F9695B9
S1130610969596958770913099F028F09230E9F08C
S1130620933041F108954BB321E030E0B90102C0A9
S1130630660F771F8A95E2F7CB0184278BBB089559
S113064048B321E030E0B90102C0660F771F8A95F4
S1130650E2F7CB01842788BB089545B321E030E05D
S1130660B90102C0660F771F8A95E2F7CB01842790
S113067085BB089542B321E030E0B90102C0660FA2
S1130680771F8A95E2F7CB01842782BB08951F92D6
S11306900F920FB60F9211242F933F934F935F93B2
S11306A06F937F938F939F93AF93BF93EF93FF9336
S11306B0E0919000F0919100309751F0099546E84F
S11306C050E060E080E00E944C0180E10E9406035B
S11306D0FF91EF91BF91AF919F918F917F916F9116
S11306E05F914F913F912F910F900FBE0F901F90EC
S11306F01895811104C08DB180618DB903C08DB18D
S11307008F7E8DB98DB180648DB908958FB9779B33
S1130710FECF8FB108951F920F920FB60F9211243E
S11307202F933F934F935F936F937F938F939F93F5
S1130730AF93BF93EF93FF93E0919800F0919900EA
S1130740309709F00995FF91EF91BF91AF919F9177
S11307508F917F916F915F914F913F912F910F9066
S11307600FBE0F901F9018951F920F920FB60F9205
S113077011242F933F934F935F936F937F938F93A2
S11307809F93AF93BF93EF93FF93E0919600F09103
S11307909700309709F00995FF91EF91BF91AF91C0
S11307A09F918F917F916F915F914F913F912F9185
S11307B00F900FBE0F901F9018951F920F920FB6B7
S11307C00F9211242F933F934F935F936F937F93D3
S11307D08F939F93AF93BF93EF93FF93E091940014
S11307E0F0919500309709F00995FF91EF91BF9131
S11307F0AF919F918F917F916F915F914F913F91B5
S11308002F910F900FBE0F901F9018951F920F926B
S11308100FB60F9211242F933F934F935F936F93CF
S11308207F938F939F93AF93BF93EF93FF93E09145
S11308309200F0919300309709F00995FF91EF91A0
S1130840BF91AF919F918F917F916F915F914F91E4
S11308503F912F910F900FBE0F901F9018951F92EC
S11308600F920FB60F9211242F933F934F935F93E0
S11308706F937F938F939F93AF93BF93EF93FF9364
S1130880E0919C00F0919D00309709F00995FF914B
S1130890EF91BF91AF919F918F917F916F915F91F4
S11308A04F913F912F910F900FBE0F901F9018956D
S11308B01F920F920FB60F9211242F933F934F93D1
S11308C05F936F937F938F939F93AF93BF93EF93B4
S11308D0FF93E0919E00F0919F00309709F00995F5
S11308E0FF91EF91BF91AF919F918F917F916F9104
S11308F05F914F913F912F910F900FBE0F901F90DA
S113090018951F920F920FB60F9211242F933F93B5
S11309104F935F936F937F938F939F93AF93BF9303
S1130920EF93FF93E0919A00F0919B00309709F0C8
S11309300995FF91EF91BF91AF919F918F917F9115
S11309406F915F914F913F912F910F900FBE0F9038
S10B09501F901895F894FFCFE5
S1130958534C41564500010000000000000100000E
S11309680000010100010000000000000000020274
S113097802020000020243616C6C4261636B000076
S9030000FC
