S01700004156525F4170706C69636174696F6E2E7372656351
S11300000C942A000C9447000C940C040C944700A4
S11300100C94CD040C94A4040C9447000C94470055
S11300200C9447000C947B040C9447000C945204E9
S11300300C9447000C94F6040C9448050C941F058A
S11300400C9447000C9447000C9447000C94470010
S11300500C94470011241FBECFE5D8E0DEBFCDBF0E
S113006010E0A0E6B0E0EEEAFBE002C005900D92DD
S1130070AC39B107D9F720E0ACE9B0E001C01D927A
S1130080AC3AB207E1F70E94E2010C94D5050C9456
S11300900000CF93C82F60E081E00E9456036C2FCC
S11300A0661F6627661F86E00E945603C6FB662706
S11300B060F985E00E945603C5FB662760F984E079
S11300C00E945603C4FB662760F983E00E9456032E
S11300D061E082E00E9456038FEC97E00197F1F70C
S11300E000C0000060E082E00E9456038FEC97E0BD
S11300F00197F1F700C00000C3FB662760F986E0B2
S11301000E945603C2FB662760F985E00E945603ED
S1130110C1FB662760F984E00E9456036C2F61706E
S113012083E00E94560361E082E00E9456038FEC54
S113013097E00197F1F700C0000060E082E00E94C0
S113014056038FEC97E00197F1F700C00000CF91C0
S11301500895CF93C82F61E081E00E9456036C2F6D
S1130160661F6627661F86E00E945603C6FB662745
S113017060F985E00E945603C5FB662760F984E0B8
S11301800E945603C4FB662760F983E00E9456036D
S113019061E082E00E9456038FEC97E00197F1F74B
S11301A000C0000060E082E00E9456038FEC97E0FC
S11301B00197F1F700C00000C3FB662760F986E0F1
S11301C00E945603C2FB662760F985E00E9456032D
S11301D0C1FB662760F984E00E9456036C2F6170AE
S11301E083E00E94560361E082E00E9456038FEC94
S11301F097E00197F1F700C0000060E082E00E9400
S113020056038FEC97E00197F1F700C00000CF91FF
S113021008952FE788E391E0215080409040E1F772
S113022000C0000082E00E94490088E20E94490068
S11302308CE00E94490081E00E9449008FEC97E025
S11302400197F1F700C0000086E00C9449000F9379
S11302501F93CF938C01C0E0F801EC0FF11D808156
S1130260882321F00E94A900CF5FF6CFCF911F9180
S11302700F9108954F925F926F927F92AF92BF92C7
S1130280CF92DF92EF92FF921F93CF93DF93CDB77C
S1130290DEB764970FB6F894DEBF0FBECDBF6B0117
S11302A07C016115710581059105B1F480E36496C3
S11302B00FB6F894DEBF0FBECDBFDF91CF911F9173
S11302C0FF90EF90DF90CF90BF90AF907F906F90B2
S11302D05F904F900C94A90097FF0BC0F094E094AA
S11302E0D094C094C11CD11CE11CF11C8DE20E946D
S11302F0A90010E09AE0492E512C612C712CAA24FB
S1130300A394B12CAC0EBD1EA10EB11CC701B60145
S1130310A30192010E94A705605DF5016083690154
S11303207A0181E0810FC114D104E104F10411F0D8
S1130330182FE5CFF12EF7FC0DC0E1E0F0E0EC0F53
S1130340FD1FEF0DF11DF7FCFA9580810E94A900B5
S1130350FA94F1CF64960FB6F894DEBF0FBECDBF0A
S1130360DF91CF911F91FF90EF90DF90CF90BF90DE
S1130370AF907F906F905F904F900895811102C06D
S113038080E803C0813021F480EC860F0C9449008E
S11303900895CF93DF93EA010E94BE01CE01DF915D
S11303A0CF910C94270180E00C9441020E944303F6
S11303B066E081E00E941F0281E00E943E0478947E
S11303C00C940901CF93DF931F92CDB7DEB70E943F
S11303D0D60140E650E065E080E00E94C90146E6AF
S11303E050E060E081E00E94C90180E00E94450481
S11303F08AE0E82EF12C0E94D301B7010E94710516
S1130400162F66E081E00E94BE01612F70E080E05B
S113041090E00E943A018DE690E00E9427011E328E
S113042020F061E088E00E945603CE0101960E940C
S11304304704882301F3812F0E944504DCCF8130D7
S113044041F020F0833039F43F9A04C03F983E983D
S113045002C03F983E9A3D9886B1887F86B986B19E
S11304606770682B66B9379A089597B1907E97B9EB
S113047097B1892B87B9369A3699FECF84B195B155
S113048008950E9435029C01A8E8B3E10E94C605C4
S1130490DC01CB012AE0B695A795979587952A9517
S11304A0D1F70895982F9695969596958770613013
S11304B009F44DC020F0623009F496C008959130DB
S11304C0B1F028F0923019F1933089F108954AB3CC
S11304D021E030E0B90102C0660F771F8A95E2F788
S11304E0CB01942F982B9ABB9BB3809547C047B3FD
S11304F021E030E0B90102C0660F771F8A95E2F768
S1130500CB01942F982B97BB98B3809549C044B3E3
S113051021E030E0B90102C0660F771F8A95E2F747
S1130520CB01942F982B94BB95B380954AC041B3CB
S113053021E030E0B90102C0660F771F8A95E2F727
S1130540CB01942F982B91BB92B380954BC09130E3
S1130550C1F028F0923031F19330A9F108954AB3F3
S113056021E030E0B90102C0660F771F8A95E2F7F7
S1130570CB018095942F98239ABB9BB389238BBB83
S1130580089547B321E030E0B90102C0660F771F38
S11305908A95E2F7CB018095942F982397BB98B363
S11305A089234BC044B321E030E0B90102C0660F97
S11305B0771F8A95E2F7CB018095942F982394BBFB
S11305C095B389234CC041B321E030E0B90102C0A6
S11305D0660F771F8A95E2F7CB018095942F9823B5
S11305E091BB92B389234DC09130B9F028F0923079
S11305F031F19330B1F108954AB321E030E0B9010B
S113060002C0660F771F8A95E2F7CB01962F90956B
S113061094239ABB9BB3892BB2CF47B321E030E03C
S1130620B90102C0660F771F8A95E2F7CB01962FB6
S11306309095942397BB98B3892B88BB089544B3B2
S113064021E030E0B90102C0660F771F8A95E2F716
S1130650CB01962F9095942394BB95B3892B85BB9E
S1130660089541B321E030E0B90102C0660F771F5D
S11306708A95E2F7CB01962F9095942391BB92B380
S1130680892B82BB08950F931F93CF9302E710E049
S1130690C0E0F80161918F018C2F0E945202CF5F5C
S11306A0C032B9F7CF911F910F910895982F969565
S11306B09695969587706130C1F5913091F028F048
S11306C09230D9F0933029F108954BB321E030E012
S11306D0B90102C0660F771F8A95E2F7CB01842B1C
S11306E03AC048B321E030E0B90102C0660F771F79
S11306F08A95E2F7CB01842B3CC045B321E030E07E
S1130700B90102C0660F771F8A95E2F7CB01842BEB
S11307103EC042B321E030E0B90102C0660F771F4A
S11307208A95E2F7CB01842B40C061113FC0913020
S1130730A1F028F09230F9F0933059F108954BB3B9
S113074021E030E0B90102C0660F771F8A95E2F715
S1130750CB01809584238BBB089548B321E030E01E
S1130760B90102C0660F771F8A95E2F7CB01809525
S1130770842388BB089545B321E030E0B90102C069
S1130780660F771F8A95E2F7CB018095842385BB9A
S1130790089542B321E030E0B90102C0660F771F2B
S11307A08A95E2F7CB018095842382BB0895282F94
S11307B02770869586958695813081F028F0823061
S11307C0B9F08330F9F008953BB381E090E001C0C3
S11307D0880F2A95EAF783278BBB089538B381E005
S11307E090E001C0880F2A95EAF7832788BB089513
S11307F035B381E090E001C0880F2A95EAF783279A
S113080085BB089532B381E090E001C0880F2A953A
S1130810EAF7832782BB08951F920F920FB60F92B7
S113082011242F933F934F935F936F937F938F93F1
S11308309F93AF93BF93EF93FF93E0919C00F0914C
S11308409D00309751F0099542E950E060E080E066
S11308500E94C90180E10E94D703FF91EF91BF91EB
S1130860AF919F918F917F916F915F914F913F9144
S11308702F910F900FBE0F901F901895811102C0F9
S11308806C9A01C06C986E9A08958FB90895FC0112
S11308909EB1892F881F8827881F19F08FB1808304
S11308A081E008951F920F920FB60F9211242F9397
S11308B03F934F935F936F937F938F939F93AF93E4
S11308C0BF93EF93FF93E091A400F091A5003097BC
S11308D009F00995FF91EF91BF91AF919F918F918D
S11308E07F916F915F914F913F912F910F900FBE28
S11308F00F901F9018951F920F920FB60F9211240C
S11309002F933F934F935F936F937F938F939F9313
S1130910AF93BF93EF93FF93E091A200F091A300F4
S1130920309709F00995FF91EF91BF91AF919F9195
S11309308F917F916F915F914F913F912F910F9084
S11309400FBE0F901F9018951F920F920FB60F9223
S113095011242F933F934F935F936F937F938F93C0
S11309609F93AF93BF93EF93FF93E091A000F09117
S1130970A100309709F00995FF91EF91BF91AF91D4
S11309809F918F917F916F915F914F913F912F91A3
S11309900F900FBE0F901F9018951F920F920FB6D5
S11309A00F9211242F933F934F935F936F937F93F1
S11309B08F939F93AF93BF93EF93FF93E0919E0028
S11309C0F0919F00309709F00995FF91EF91BF9145
S11309D0AF919F918F917F916F915F914F913F91D3
S11309E02F910F900FBE0F901F9018951F920F928A
S11309F00FB60F9211242F933F934F935F936F93EE
S1130A007F938F939F93AF93BF93EF93FF93E09163
S1130A10A800F091A900309709F00995FF91EF9192
S1130A20BF91AF919F918F917F916F915F914F9102
S1130A303F912F910F900FBE0F901F9018951F920A
S1130A400F920FB60F9211242F933F934F935F93FE
S1130A506F937F938F939F93AF93BF93EF93FF9382
S1130A60E091AA00F091AB00309709F00995FF914D
S1130A70EF91BF91AF919F918F917F916F915F9112
S1130A804F913F912F910F900FBE0F901F9018958B
S1130A901F920F920FB60F9211242F933F934F93EF
S1130AA05F936F937F938F939F93AF93BF93EF93D2
S1130AB0FF93E091A600F091A700309709F0099503
S1130AC0FF91EF91BF91AF919F918F917F916F9122
S1130AD05F914F913F912F910F900FBE0F901F90F8
S1130AE01895AA1BBB1B51E107C0AA1FBB1FA61761
S1130AF0B70710F0A61BB70B881F991F5A95A9F7C3
S1130B0080959095BC01CD010895A1E21A2EAA1BEF
S1130B10BB1BFD010DC0AA1FBB1FEE1FFF1FA217A9
S1130B20B307E407F50720F0A21BB30BE40BF50BA6
S1130B30661F771F881F991F1A9469F7609570952F
S1130B40809590959B01AC01BD01CF010895052EC0
S1130B5097FB1EF400940E94BE0557FD07D00E9427
S1130B60850507FC03D04EF40C94BE0550954095C2
S1130B70309521953F4F4F4F5F4F08959095809545
S1130B80709561957F4F8F4F9F4F0895A29FB0013D
S1130B90B39FC001A39F700D811D1124911DB29FAD
S1110BA0700D811D1124911D0895F894FFCF4E
S1130BAE536C6176650054656D703A2000202020E8
S1130BBE20000100000000000001000000000101FF
S1130BCE000100000000000000000202020200000A
S10F0BDE020243616C6C4261636B000016
S9030000FC
