S01700004156525F4170706C69636174696F6E2E7372656351
S11300000C942A000C944D040C9476040C94470030
S11300100C9426050C94FD040C9447000C944700A2
S11300200C9447000C94D4040C9447000C94AB0437
S11300300C9447000C944F050C94A1050C9478057E
S11300400C9447000C9447000C9447000C94470010
S11300500C94470011241FBECFE5D8E0DEBFCDBF0E
S113006010E0A0E6B0E0EAE1FCE002C005900D92E9
S1130070A439B107D9F720E0A4E9B0E001C01D928A
S1130080A93AB207E1F70E94FB010C940B060C9409
S11300900000CF93C82F60E081E00E9467036C2FBB
S11300A0661F6627661F86E00E946703C6FB6627F5
S11300B060F985E00E946703C5FB662760F984E068
S11300C00E946703C4FB662760F983E00E9467030C
S11300D061E082E00E9467038FEC97E00197F1F7FB
S11300E000C0000060E082E00E9467038FEC97E0AC
S11300F00197F1F700C00000C3FB662760F986E0B2
S11301000E946703C2FB662760F985E00E946703CB
S1130110C1FB662760F984E00E9467036C2F61705D
S113012083E00E94670361E082E00E9467038FEC32
S113013097E00197F1F700C0000060E082E00E94C0
S113014067038FEC97E00197F1F700C00000CF91AF
S11301500895CF93C82F61E081E00E9467036C2F5C
S1130160661F6627661F86E00E946703C6FB662734
S113017060F985E00E946703C5FB662760F984E0A7
S11301800E946703C4FB662760F983E00E9467034B
S113019061E082E00E9467038FEC97E00197F1F73A
S11301A000C0000060E082E00E9467038FEC97E0EB
S11301B00197F1F700C00000C3FB662760F986E0F1
S11301C00E946703C2FB662760F985E00E9467030B
S11301D0C1FB662760F984E00E9467036C2F61709D
S11301E083E00E94670361E082E00E9467038FEC72
S11301F097E00197F1F700C0000060E082E00E9400
S113020067038FEC97E00197F1F700C00000CF91EE
S113021008952FE788E391E0215080409040E1F772
S113022000C0000082E00E94490088E20E94490068
S11302308CE00E94490081E00E9449008FEC97E025
S11302400197F1F700C0000086E00C9449000F9379
S11302501F93CF938C01C0E0F801EC0FF11D808156
S1130260882321F00E94A900CF5FF6CFCF911F9180
S11302700F9108954F925F926F927F92AF92BF92C7
S1130280CF92DF92EF92FF921F93CF93DF93CDB77C
S1130290DEB764970FB6F894DEBF0FBECDBF6B0117
S11302A07C016115710581059105B1F480E36496C3
S11302B00FB6F894DEBF0FBECDBFDF91CF911F9173
S11302C0FF90EF90DF90CF90BF90AF907F906F90B2
S11302D05F904F900C94A90097FF0BC0F094E094AA
S11302E0D094C094C11CD11CE11CF11C8DE20E946D
S11302F0A90010E09AE0492E512C612C712CAA24FB
S1130300A394B12CAC0EBD1EA10EB11CC701B60145
S1130310A30192010E94EC05605DF501608369010F
S11303207A0181E0810FC114D104E104F10411F0D8
S1130330182FE5CFF12EF7FC0DC0E1E0F0E0EC0F53
S1130340FD1FEF0DF11DF7FCFA9580810E94A900B5
S1130350FA94F1CF64960FB6F894DEBF0FBECDBF0A
S1130360DF91CF911F91FF90EF90DF90CF90BF90DE
S1130370AF907F906F905F904F900895811102C06D
S113038080E803C0813021F480EC860F0C9449008E
S11303900895CF93DF93EA010E94BE01CE01DF915D
S11303A0CF910C94270181E080939500089581E01A
S11303B08093940008950E94540380E00E949F0457
S11303C0789481E00E94E80362E081E00E94F803EF
S11303D063ED71E081E00E943E0480E00E94E80346
S11303E063E080E00E94F80367ED71E080E00E9422
S11303F03E040C9409010E94DB0141E650E065E0F3
S113040080E00E94C90148E650E060E081E00E947B
S1130410C901809160000E94A604809396002FEF8A
S113042080E792E0215080409040E1F700C0000056
S113043080919500813081F466E00E94BE01609154
S1130440960070E080E090E00E943A018FE690E030
S11304500E9427011092950080919400813041F50B
S113046066E00E94BE016091960070E080E090E03A
S11304700E943A018FE690E00E94270161E088E043
S11304800E9467032FEF84E39CE02150804090405A
S1130490E1F700C0000060E088E00E9467032FEFEE
S11304A084E39CE0215080409040E1F700C00000CC
S11304B0809196008D3218F410929400AACF81E0B6
S11304C080939400A6CF982F9695969596958770CD
S11304D0613009F44DC020F0623009F496C00895EB
S11304E09130B1F028F0923019F1933089F10895E8
S11304F04AB321E030E0B90102C0660F771F8A9544
S1130500E2F7CB01942F982B9ABB9BB3809547C0FD
S113051047B321E030E0B90102C0660F771F8A9526
S1130520E2F7CB01942F982B97BB98B3809549C0E1
S113053044B321E030E0B90102C0660F771F8A9509
S1130540E2F7CB01942F982B94BB95B380954AC0C6
S113055041B321E030E0B90102C0660F771F8A95EC
S1130560E2F7CB01942F982B91BB92B380954BC0AB
S11305709130C1F028F0923031F19330A9F108950F
S11305804AB321E030E0B90102C0660F771F8A95B3
S1130590E2F7CB018095942F98239ABB9BB38923D0
S11305A08BBB089547B321E030E0B90102C0660F68
S11305B0771F8A95E2F7CB018095942F982397BBF8
S11305C098B389234BC044B321E030E0B90102C0A1
S11305D0660F771F8A95E2F7CB018095942F9823B5
S11305E094BB95B389234CC041B321E030E0B901F9
S11305F002C0660F771F8A95E2F7CB018095942F8E
S1130600982391BB92B389234DC09130B9F028F05F
S1130610923031F19330B1F108954AB321E030E0E2
S1130620B90102C0660F771F8A95E2F7CB01962FB6
S1130630909594239ABB9BB3892BB2CF47B321E007
S113064030E0B90102C0660F771F8A95E2F7CB014B
S1130650962F9095942397BB98B3892B88BB0895C4
S113066044B321E030E0B90102C0660F771F8A95D8
S1130670E2F7CB01962F9095942394BB95B3892BE5
S113068085BB089541B321E030E0B90102C0660F93
S1130690771F8A95E2F7CB01962F9095942391BB0F
S11306A092B3892B82BB08950F931F93CF9304E7D2
S11306B010E0C0E0F80161918F018C2F0E94630269
S11306C0CF5FC032B9F7CF911F910F910895982F42
S11306D096959695969587706130C1F5913091F015
S11306E028F09230D9F0933029F108954BB321E0EA
S11306F030E0B90102C0660F771F8A95E2F7CB019B
S1130700842B3AC048B321E030E0B90102C0660F3F
S1130710771F8A95E2F7CB01842B3CC045B321E0D7
S113072030E0B90102C0660F771F8A95E2F7CB016A
S1130730842B3EC042B321E030E0B90102C0660F11
S1130740771F8A95E2F7CB01842B40C061113FC02B
S11307509130A1F028F09230F9F0933059F10895D6
S11307604BB321E030E0B90102C0660F771F8A95D0
S1130770E2F7CB01809584238BBB089548B321E035
S113078030E0B90102C0660F771F8A95E2F7CB010A
S11307908095842388BB089545B321E030E0B901F6
S11307A002C0660F771F8A95E2F7CB0180958423F8
S11307B085BB089542B321E030E0B90102C0660F61
S11307C0771F8A95E2F7CB018095842382BB089535
S11307D0813039F018F0823039F008958BB7806495
S11307E005C08BB7806802C08BB780628BBF089549
S11307F08130F1F018F08230B1F10895613049F0A0
S113080028F0623061F0633069F0089585B78E7F17
S113081002C085B7816085BF85B78D7F22C085B74B
S11308208E7F02C085B7816085BF85B7826019C09D
S1130830613049F028F0623061F0633069F0089566
S113084085B78B7F02C085B7846085BF85B7877FF6
S113085008C085B78B7F02C085B7846085BF85B724
S1130860886085BF0895623029F0633019F484B735
S1130870806402C084B78F7B84BF0895882339F0D5
S1130880813051F4709398006093970005C0709381
S11308909A0060939900089508951F920F920FB6DD
S11308A00F9211242F933F934F935F936F937F93F2
S11308B08F939F93AF93BF93EF93FF93E09199002E
S11308C0F0919A00309709F00995FF91EF91BF914B
S11308D0AF919F918F917F916F915F914F913F91D4
S11308E02F910F900FBE0F901F9018951F920F928B
S11308F00FB60F9211242F933F934F935F936F93EF
S11309007F938F939F93AF93BF93EF93FF93E09164
S11309109700F0919800309709F00995FF91EF91B5
S1130920BF91AF919F918F917F916F915F914F9103
S11309303F912F910F900FBE0F901F90189581112A
S113094002C06C9A01C06C986E9A08958FB9779B17
S1130950FECF8FB108951F920F920FB60F921124FC
S11309602F933F934F935F936F937F938F939F93B3
S1130970AF93BF93EF93FF93E091A100F091A20096
S1130980309709F00995FF91EF91BF91AF919F9135
S11309908F917F916F915F914F913F912F910F9024
S11309A00FBE0F901F9018951F920F920FB60F92C3
S11309B011242F933F934F935F936F937F938F9360
S11309C09F93AF93BF93EF93FF93E0919F00F091B8
S11309D0A000309709F00995FF91EF91BF91AF9175
S11309E09F918F917F916F915F914F913F912F9143
S11309F00F900FBE0F901F9018951F920F920FB675
S1130A000F9211242F933F934F935F936F937F9390
S1130A108F939F93AF93BF93EF93FF93E0919D00C8
S1130A20F0919E00309709F00995FF91EF91BF91E5
S1130A30AF919F918F917F916F915F914F913F9172
S1130A402F910F900FBE0F901F9018951F920F9229
S1130A500FB60F9211242F933F934F935F936F938D
S1130A607F938F939F93AF93BF93EF93FF93E09103
S1130A709B00F0919C00309709F00995FF91EF914C
S1130A80BF91AF919F918F917F916F915F914F91A2
S1130A903F912F910F900FBE0F901F9018951F92AA
S1130AA00F920FB60F9211242F933F934F935F939E
S1130AB06F937F938F939F93AF93BF93EF93FF9322
S1130AC0E091A500F091A600309709F00995FF91F7
S1130AD0EF91BF91AF919F918F917F916F915F91B2
S1130AE04F913F912F910F900FBE0F901F9018952B
S1130AF01F920F920FB60F9211242F933F934F938F
S1130B005F936F937F938F939F93AF93BF93EF9371
S1130B10FF93E091A700F091A800309709F00995A0
S1130B20FF91EF91BF91AF919F918F917F916F91C1
S1130B305F914F913F912F910F900FBE0F901F9097
S1130B4018951F920F920FB60F9211242F933F9373
S1130B504F935F936F937F938F939F93AF93BF93C1
S1130B60EF93FF93E091A300F091A400309709F074
S1130B700995FF91EF91BF91AF919F918F917F91D3
S1130B806F915F914F913F912F910F900FBE0F90F6
S1130B901F901895A1E21A2EAA1BBB1BFD010DC0C4
S1130BA0AA1FBB1FEE1FFF1FA217B307E407F50719
S1130BB020F0A21BB30BE40BF50B661F771F881FF5
S1130BC0991F1A9469F760957095809590959B018B
S1130BD0AC01BD01CF010895052E97FB1EF40094CE
S1130BE00E94030657FD07D00E94CA0507FC03D0E4
S1130BF04EF40C94030650954095309521953F4F43
S1130C004F4F5F4F089590958095709561957F4FF4
S10D0C108F4F9F4F0895F894FFCF13
S1130C1A614D61737465720054656D703A200020E9
S1130C2A2020200001000000000000010000000054
S1130C3A00000100000000000000000001010102A0
S1070C4A000002029E
S9030000FC
