S01700004156525F4170706C69636174696F6E2E7372656351
S11300000C942A000C9447000C945D050C94470052
S11300100C9447000C9447000C947A030C94280326
S11300200C9451030C94FF020C94EB020C94F50213
S11300300C9447000C9447000C9447000C94470020
S11300400C9447000C9447000C9447000C94470010
S11300500C94470011241FBECFE5D8E0DEBFCDBF0E
S113006010E0A0E6B0E0ECECFBE002C005900D92DD
S1130070AA39B107D9F720E0AAE9B0E001C01D927E
S1130080A43BB207E1F70E9443020C94E4050C94EC
S11300900000CF93C82F60E081E00E94A7046C2F7A
S11300A0661F6627661F86E00E94A704C6FB6627B4
S11300B060F985E00E94A704C5FB662760F984E027
S11300C00E94A704C4FB662760F983E00E94A7048A
S11300D061E082E00E94A7048FEC97E00197F1F7BA
S11300E000C0000060E082E00E94A7048FEC97E06B
S11300F00197F1F700C00000C3FB662760F986E0B2
S11301000E94A704C2FB662760F985E00E94A70449
S1130110C1FB662760F984E00E94A7046C2F61701C
S113012083E00E94A70461E082E00E94A7048FECB0
S113013097E00197F1F700C0000060E082E00E94C0
S1130140A7048FEC97E00197F1F700C00000CF916E
S11301500895CF93C82F61E081E00E94A7046C2F1B
S1130160661F6627661F86E00E94A704C6FB6627F3
S113017060F985E00E94A704C5FB662760F984E066
S11301800E94A704C4FB662760F983E00E94A704C9
S113019061E082E00E94A7048FEC97E00197F1F7F9
S11301A000C0000060E082E00E94A7048FEC97E0AA
S11301B00197F1F700C00000C3FB662760F986E0F1
S11301C00E94A704C2FB662760F985E00E94A70489
S11301D0C1FB662760F984E00E94A7046C2F61705C
S11301E083E00E94A70461E082E00E94A7048FECF0
S11301F097E00197F1F700C0000060E082E00E9400
S1130200A7048FEC97E00197F1F700C00000CF91AD
S113021008952FE788E391E0215080409040E1F772
S113022000C0000082E00E94490088E20E94490068
S11302308CE00E94490081E00E9449008FEC97E025
S11302400197F1F700C0000086E00C9449000F9379
S11302501F93CF938C01C0E0F801EC0FF11D808156
S1130260882321F00E94A900CF5FF6CFCF911F9180
S11302700F9108954F925F926F927F92AF92BF92C7
S1130280CF92DF92EF92FF921F93CF93DF93CDB77C
S1130290DEB764970FB6F894DEBF0FBECDBF6B0117
S11302A07C016115710581059105B1F480E36496C3
S11302B00FB6F894DEBF0FBECDBFDF91CF911F9173
S11302C0FF90EF90DF90CF90BF90AF907F906F90B2
S11302D05F904F900C94A90097FF0BC0F094E094AA
S11302E0D094C094C11CD11CE11CF11C8DE20E946D
S11302F0A90010E09AE0492E512C612C712CAA24FB
S1130300A394B12CAC0EBD1EA10EB11CC701B60145
S1130310A30192010E94C505605DF5016083690136
S11303207A0181E0810FC114D104E104F10411F0D8
S1130330182FE5CFF12EF7FC0DC0E1E0F0E0EC0F53
S1130340FD1FEF0DF11DF7FCFA9580810E94A900B5
S1130350FA94F1CF64960FB6F894DEBF0FBECDBF0A
S1130360DF91CF911F91FF90EF90DF90CF90BF90DE
S1130370AF907F906F905F904F900895811102C06D
S113038080E803C0813021F480EC860F0C9449008E
S11303900895CF93DF93EA010E94BE01CE01DF915D
S11303A0CF910C94270180919A0081110BC086B5DE
S11303B097B59093A2008093A10081E00E94D3029C
S11303C081E00DC080919A00813059F486B597B5CB
S11303D09093A00080939F000E94E20283E08093A8
S11303E09A00089562E080E00E94970283ED91E014
S11303F00C94E602CF93C82F61E00E94A70481E227
S11304008A95F1F7000060E08C2FCF910C94A7043B
S1130410CF93C82F1DBC1CBC80E00E94D3020E9455
S1130420DE0210929A008C2F0E94FA0180919A00A9
S11304308230E0F380919F009091A0002091A10070
S11304403091A200821B930B90939C0080939B009D
S113045080919B0090919C006AE370E00E948F055C
S113046070939E0060939D0010929A0080919D006D
S113047090919E00CF91089578940E9494040E94D4
S1130480F2010C9409010E943C0280E690E00E9473
S11304902701C2E08091A300811116C080E10E946F
S11304A008029093B1008093B00060E081E00E9464
S11304B0BE016091B0007091B10080E090E00E94B4
S11304C03A0181E08093A3008091A3008130A9F4D4
S11304D081E10E9408029093B1008093B00066E02D
S11304E081E00E94BE016091B0007091B10080E093
S11304F090E00E943A01C093A3008091A30082304F
S113050049F682E10E9408029093B1008093B00002
S11305106DE081E00E94BE016091B0007091B10075
S113052080E090E00E943A011092A300B3CF8230A1
S1130530D9F050F4882379F0813071F58FB58E7F2E
S11305408FBD8FB58D7F21C08330D1F0843021F5EC
S11305508FB5816017C08FB58E7F8FBD8FB58D7FAE
S11305608FBD8EB5877F08C08FB58E7F8FBD8FB549
S11305708D7F8FBD8EB588608EBD8EB58F7E0BC08E
S11305808FB58E7F8FBD8FB582608FBD8EB588602D
S11305908EBD8EB580618EBD8EB5887F8EBD8EB5C5
S11305A0682B6EBD0895811103C08EB5806404C0AC
S11305B0813019F48EB58F7B8EBD089589B7806222
S11305C089BF089589B78F7D89BF08959093A50049
S11305D08093A40008951F920F920FB60F921124D6
S11305E00F900FBE0F901F9018951F920F920FB689
S11305F00F9211240F900FBE0F901F9018951F9209
S11306000F920FB60F9211242F933F934F935F9342
S11306106F937F938F939F93AF93BF93EF93FF93C6
S1130620E091AA00F091AB00309709F00995FF9191
S1130630EF91BF91AF919F918F917F916F915F9156
S11306404F913F912F910F900FBE0F901F901895CF
S11306501F920F920FB60F9211242F933F934F9333
S11306605F936F937F938F939F93AF93BF93EF9316
S1130670FF93E091A800F091A900309709F0099543
S1130680FF91EF91BF91AF919F918F917F916F9166
S11306905F914F913F912F910F900FBE0F901F903C
S11306A018951F920F920FB60F9211242F933F9318
S11306B04F935F936F937F938F939F93AF93BF9366
S11306C0EF93FF93E091A600F091A700309709F013
S11306D00995FF91EF91BF91AF919F918F917F9178
S11306E06F915F914F913F912F910F900FBE0F909B
S11306F01F9018951F920F920FB60F9211242F93EB
S11307003F934F935F936F937F938F939F93AF9395
S1130710BF93EF93FF93E091A400F091A50030976D
S113072009F00995FF91EF91BF91AF919F918F913E
S11307307F916F915F914F913F912F910F900FBED9
S11307400F901F901895982F96959695969587706B
S1130750613009F44DC020F0623009F496C0089568
S11307609130B1F028F0923019F1933089F1089565
S11307704AB321E030E0B90102C0660F771F8A95C1
S1130780E2F7CB01942F982B9ABB9BB3809547C07B
S113079047B321E030E0B90102C0660F771F8A95A4
S11307A0E2F7CB01942F982B97BB98B3809549C05F
S11307B044B321E030E0B90102C0660F771F8A9587
S11307C0E2F7CB01942F982B94BB95B380954AC044
S11307D041B321E030E0B90102C0660F771F8A956A
S11307E0E2F7CB01942F982B91BB92B380954BC029
S11307F09130C1F028F0923031F19330A9F108958D
S11308004AB321E030E0B90102C0660F771F8A9530
S1130810E2F7CB018095942F98239ABB9BB389234D
S11308208BBB089547B321E030E0B90102C0660FE5
S1130830771F8A95E2F7CB018095942F982397BB75
S113084098B389234BC044B321E030E0B90102C01E
S1130850660F771F8A95E2F7CB018095942F982332
S113086094BB95B389234CC041B321E030E0B90176
S113087002C0660F771F8A95E2F7CB018095942F0B
S1130880982391BB92B389234DC09130B9F028F0DD
S1130890923031F19330B1F108954AB321E030E060
S11308A0B90102C0660F771F8A95E2F7CB01962F34
S11308B0909594239ABB9BB3892BB2CF47B321E085
S11308C030E0B90102C0660F771F8A95E2F7CB01C9
S11308D0962F9095942397BB98B3892B88BB089542
S11308E044B321E030E0B90102C0660F771F8A9556
S11308F0E2F7CB01962F9095942394BB95B3892B63
S113090085BB089541B321E030E0B90102C0660F10
S1130910771F8A95E2F7CB01962F9095942391BB8C
S113092092B3892B82BB08950F931F93CF9301E752
S113093010E0C0E0F80161918F018C2F0E94A303A5
S1130940CF5FC032B9F7CF911F910F910895982FBF
S113095096959695969587706130C1F5913091F092
S113096028F09230D9F0933029F108954BB321E067
S113097030E0B90102C0660F771F8A95E2F7CB0118
S1130980842B3AC048B321E030E0B90102C0660FBD
S1130990771F8A95E2F7CB01842B3CC045B321E055
S11309A030E0B90102C0660F771F8A95E2F7CB01E8
S11309B0842B3EC042B321E030E0B90102C0660F8F
S11309C0771F8A95E2F7CB01842B40C061113FC0A9
S11309D09130A1F028F09230F9F0933059F1089554
S11309E04BB321E030E0B90102C0660F771F8A954E
S11309F0E2F7CB01809584238BBB089548B321E0B3
S1130A0030E0B90102C0660F771F8A95E2F7CB0187
S1130A108095842388BB089545B321E030E0B90173
S1130A2002C0660F771F8A95E2F7CB018095842375
S1130A3085BB089542B321E030E0B90102C0660FDE
S1130A40771F8A95E2F7CB018095842382BB0895B2
S1130A50282F2770869586958695813081F028F019
S1130A608230B9F08330F9F008953BB381E090E02F
S1130A7001C0880F2A95EAF783278BBB089538B302
S1130A8081E090E001C0880F2A95EAF7832788BBAC
S1130A90089535B381E090E001C0880F2A95EAF704
S1130AA0832785BB089532B381E090E001C0880FAD
S1130AB02A95EAF7832782BB08951F920F920FB6F7
S1130AC00F9211242F933F934F935F936F937F93D0
S1130AD08F939F93AF93BF93EF93FF93E091AC00F9
S1130AE0F091AD00309751F0099541E950E060E094
S1130AF080E00E94C90180E10E942805FF91EF91E6
S1130B00BF91AF919F918F917F916F915F914F9121
S1130B103F912F910F900FBE0F901F901895AA1B15
S1130B20BB1B51E107C0AA1FBB1FA617B70710F0D4
S1130B30A61BB70B881F991F5A95A9F78095909506
S1130B40BC01CD010895A1E21A2EAA1BBB1BFD0115
S1130B500DC0AA1FBB1FEE1FFF1FA217B307E40798
S1130B60F50720F0A21BB30BE40BF50B661F771FF0
S1130B70881F991F1A9469F76095709580959095D0
S1130B809B01AC01BD01CF010895052E97FB1EF416
S1130B9000940E94DC0557FD07D00E94A30507FCC2
S1130BA003D04EF40C94DC05509540953095219576
S1130BB03F4F4F4F5F4F0895909580957095619585
S10F0BC07F4F8F4F9F4F0895F894FFCF94
S1130BCC5531202020202055322020202020553340
S1130BDC00010000000000000100000000020202FD
S1130BEC02000000000000000002000202000001EC
S10D0BFC0043616C6C4261636B00FE
S9030000FC
